:020000040800F2
:10000000500400209D0100086F0D0008010D00083C
:100010006D0D00088502000869120008000000004C
:10002000000000000000000000000000930D000828
:100030008702000800000000910D0008950D0008DF
:10004000B7010008B7010008B7010008B7010008B0
:10005000B7010008B7010008B7010008B7010008A0
:10006000B7010008B7010008B7010008B701000890
:10007000B7010008B7010008B7010008B701000880
:10008000B7010008B7010008B7010008B701000870
:10009000B7010008B7010008B7010008B701000860
:1000A000B7010008B7010008B7010008B701000850
:1000B000B7010008B7010008B7010008B701000840
:1000C000B7010008B7010008B7010008B701000830
:1000D000B70100085D120008B7010008B701000869
:1000E000B7010008B7010008B7010008B701000810
:1000F000B7010008B7010008B7010008B701000800
:10010000B7010008B7010008B7010008B7010008EF
:10011000B7010008B7010008B7010008B7010008DF
:10012000B7010008B7010008B7010008B7010008CF
:10013000B7010008B7010008B7010008B7010008BF
:10014000B7010008B7010008B7010008B7010008AF
:10015000B7010008B7010008B7010008B70100089F
:10016000B7010008B7010008B7010008B70100088F
:10017000B7010008B7010008B7010008000000003F
:10018000B7010008B7010008DFF80CD000F068F8EC
:1001900000480047891200085004002006488047A4
:1001A00006480047FEE7FEE7FEE7FEE7FEE7FEE75C
:1001B000FEE7FEE7FEE7FEE7410E000889010008C2
:1001C0002DE9F05F0546002092469B46884606468C
:1001D000814640241BE0284641464746224600F01F
:1001E0002FF853465A46C01A914110D3114618466B
:1001F000224600F016F82D1A67EB01084F462246FA
:100200000120002100F00DF817EB00094E41201EDF
:10021000A4F10104DFDC484631462A464346BDE8E6
:10022000F09F202A04DB203A00FA02F100207047F8
:100230009140C2F1200320FA03F319439040704724
:10024000202A04DB203A21FA02F00021704721FA2B
:1002500002F3D040C2F12002914008431946704792
:10026000064C074D06E0E06840F0010394E8070003
:1002700098471034AC42F6D3FFF78AFFEC1200081F
:100280000C130008FEE7704790F83510022903D0E0
:100290008021416501207047052180F835100068F4
:1002A000016821F001010160002070472DE9F84F3D
:1002B000DFF87CB100224FF001084FF0030A4FF045
:1002C0000F090BF1040E00BF0B6808FA02F423407B
:1002D000A3426ED14D68022D01D0122D0ED1D5084A
:1002E00000EB850CDCF820505607F70E09FA07F6EC
:1002F000B5430E69BE402E43CCF820600668550019
:100300000F790AFA05FC07F0030726EA0C06AF404E
:10031000374307604E68012E05D0022E03D0112E00
:1003200001D0122E0ED18668CF6826EA0C06AF40A7
:10033000374387604668A6430C79C4F300149440A1
:1003400034434460C6688C6826EA0C06AC403443EB
:10035000C4604C68E40065D5364C256845F480459A
:100360002560246822F0030504F480440094324C94
:100370002E19D6F8084895072F0F09FA07F5AC4350
:100380002E4DA84201D1002524E02D4DA84201D1D7
:1003900001251FE02B4DA84201D102251AE02A4D6C
:1003A000A84201D1032515E0284DA84202D1042519
:1003B00010E037E0264DA84201D105250AE0254D81
:1003C000A84201D1062505E0234DA84201D1072509
:1003D00000E00825BD402543C6F80858DBF800407A
:1003E0005D464E689C43F60300D51C432C60DEF846
:1003F000004075464E689C43B60300D51C432C60F4
:100400000B4D08352C684E689C43F60200D51C4302
:100410002C60074D0C352C684E689C43B60200D505
:100420001C432C60521C102AFFF44EAFBDE8F88F1D
:10043000003C0140443802400030014000000240CE
:100440000004024000080240000C0240001002407C
:100450000014024000180240001C02400AB18161F1
:1004600070470904FBE700000148806870470000FE
:1004700000000020024881680278114481607047C2
:10048000000000200B4810B5016841F400710160C4
:10049000016841F480610160016841F4807101608C
:1004A000032000F097F8002000F006F800F024F890
:1004B000002010BD003C024070B50D4D04464FF4C5
:1004C0007A712878B1FBF0F00A490968B1FBF0F0C5
:1004D00000F01BFB48B9102C07D200222146501E09
:1004E00000F058F800206C6070BD012070BD000065
:1004F000000000200C0000201F4808B5016841F4EE
:1005000080410160006800F4804000901A48001F9C
:10051000016841F080510160006800F08050009057
:10052000052000F057F8002211466FF00B0000F094
:1005300031F8002211466FF00A0000F02BF800227B
:1005400011466FF0090000F025F800221146501FF7
:1005500000F020F800221146101F00F01BF80022C6
:100560001146901E00F016F80022BDE80840114622
:10057000501E00F00FB800004438024000F01F0287
:10058000012191404009800000F1E020C0F80011F5
:1005900070470000F0B40E4B1B680C46C3F30223F7
:1005A000C3F10705042D00D90425191D072901D21F
:1005B000002300E0DB1E012606FA05F1491E21405A
:1005C00099409E40761E16403143F0BC00F0D0BBEF
:1005D0000CED00E0064900F0070208684FF6FF0343
:1005E000184040EA0220034A1043086070470000A8
:1005F0000CED00E00000FA052DE9F0470E4605007D
:1006000065D0DFF81481D8F80000F7B200F00F00D1
:10061000B04207D288F80070D8F8000000F00F0050
:10062000B04254D128683D4C810712D5400703D50C
:10063000206840F4E05020602878000703D5206847
:1006400040F4604020602068A96820F0F000084372
:1006500020602878C0072DD0304968680839012803
:1006600012D0022813D0032811D009688907002965
:100670002DDA216821F0030101432160FFF7F4FE28
:10068000814641F2883A0EE009688903EFE709687C
:100690008901ECE7FFF7E8FEA0EB0901514502D91B
:1006A0000320BDE8F0872068696800F00C00B0EB1B
:1006B000810FEFD1D8F80010404601F00F01B14290
:1006C00007D90770006800F00F00B04201D0012088
:1006D000E7E72878400705D52068E96820F4E0506E
:1006E000084320602878000706D52068296920F48F
:1006F000604040EAC100206000F03CF82168084AF0
:10070000C1F30311515CC840064908600020FFF79F
:10071000D3FE0020C5E70000003C0240083802403C
:10072000D41200080C000020014800687047000047
:100730000C0000200448054900680968044AC1F318
:100740008221515CC84070470C00002008380240EC
:10075000E41200080448054900680968044AC1F326
:100760004231515CC84070470C00002008380240FC
:10077000E4120008154810B5006810F00C02144887
:1007800013D04110042A0FD0082A0ED10F4C241F79
:100790002268236802F03F025B0207D52068C0F39D
:1007A0008810A0FB010106E0084610BD2168C1F3D6
:1007B0008811A1FB00010023FFF702FD2168C1F3AE
:1007C0000141491C4900B0FBF1F010BD083802405E
:1007D0000024F4002DE9F84F050076D02878DFF8E2
:1007E000F8B2BE4CC00749D0DBF800105846C1F340
:1007F0008101012908D00068C0F3810002280AD1D4
:10080000201D0068400206D52068800336D5686840
:100810000028E2D032E06868B0F5803F10D0B0F533
:10082000A02F206810D020F480302060206820F4B1
:10083000802020606868A0B1FFF716FE06460CE035
:10084000206840F48030F4E740F480202060F7E72F
:10085000FFF70AFE801B642873D820688003F7D551
:100860000CE0FFF701FE064605E000BFFFF7FCFDC8
:10087000801B6428F0D820688003F7D42878DFF83C
:10088000608280074FF000093ED5DBF80010584623
:1008900011F00C0F09D00068C0F3810002280BD1C1
:1008A0008D48001F0068400206D42068800715D5D7
:1008B000E868012809D111E0E868B8B10120C8F85A
:1008C0000000FFF7D1FD064605E002E1FFF7CCFD91
:1008D000801B0228C0D820688007F7D520682969C6
:1008E00020F0F80040EAC10020600DE0C8F8009058
:1008F000FFF7BAFD064604E0FFF7B6FD801B0228AD
:100900001FD820688007F7D42878000722D5724EB8
:10091000744869696C3671B101210160FFF7A4FD6B
:10092000074604E0FFF7A0FDC01B022809D8306885
:100930008007F7D50EE0C0F80090FFF795FD074659
:1009400005E083E0FFF790FDC01B02287ED83068E9
:100950008007F7D42878400768D5DFF87CA1002706
:100960000AF1380ADAF80000C0000BD4DAF80010F7
:1009700041F08051CAF80010DAF80000012700F0B9
:1009800080500090584E3068C00510D4306840F454
:1009900080703060FFF768FD009005E0FFF764FDB0
:1009A0000099401A022851D83068C005F6D54A4E41
:1009B000A868683601280FD00528306810D020F0CC
:1009C00001003060306820F004003060A868B8B1E1
:1009D000FFF74AFD00900FE0306840F00100F4E7B7
:1009E00040F004003060F7E7FFF73EFD0099411A40
:1009F00041F28830814264D830688007F4D50EE037
:100A0000FFF732FD009007E0FFF72EFD0099411A35
:100A100041F28830814254D830688007F4D42FB135
:100A2000DAF8001021F08051CAF80010A869C0B3AC
:100A3000DBF80010C1F3810102294AD002284846A0
:100A400007D0C8F86000FFF70FFD00E039E0054669
:100A50003AE04746C8F86000FFF706FD064604E0A6
:100A6000FFF702FD801B02282BD820688001F7D4F5
:100A7000D5E907010843A96A1C4A490802EB01416C
:100A80006A6A41EA8211084395F82C1040EA016134
:100A90001148001F016001203866FFF7E5FC05469C
:100AA00005E014E0FFF7E0FC401B022809D82068AD
:100AB0008001F7D50BE000BFFFF7D6FC401B0228F2
:100AC00002D90320BDE8F88F20688001F4D400200B
:100AD000F8E70120F6E7000008380240003802403D
:100AE00000004742800E4742007000400000FFFFB8
:100AF0004FF0E0210428086903D020F004000861C9
:100B0000704740F00400FAE7704710B5401EB0F19E
:100B1000807F01D3012010BD4FF0E02460610F21E0
:100B2000601700F025F90020A06107202061002057
:100B300010BD10B5FFF7E8FF10BD704770B5026833
:100B400004461068D168536910F00F0F50D003F0BD
:100B5000010501F4907635435DD0C20705D0CA0582
:100B600003D5E26B42F00102E263420705D5DA07E2
:100B700003D0E26B42F00202E263820705D5DA0796
:100B800003D0E26B42F00402E263020705D5DA0704
:100B900003D0E26B42F00802E263E26B002A33D03A
:100BA000800604D5880602D5204600F089F9206821
:100BB0004069E16BC0F38010090700D428B32046D8
:100BC00000F070F92068416949061AD5416921F0A1
:100BD00040014161606BA0B11B490165606BFFF78B
:100BE00053FB002810D0606B016DBDE870400847D2
:100BF000830610D58B060ED52046BDE8704000F068
:100C00005FB92046FFF799FF70BD2046FFF795FFBB
:100C10000020E06370BD030606D50B0604D5204610
:100C2000BDE8704000F0E8BA4006F3D54806F1D5BB
:100C3000D168204621F04001D160202184F839108C
:100C400000F05DF870BD0000950E000870B504005E
:100C500004D094F83900002510B106E0012070BDE1
:100C600084F83850204600F023F8242084F8390016
:100C70002068C16821F40051C160204600F066F987
:100C80002068016921F4904101612068416921F0E7
:100C90002A0141612068C16841F40051C160E563E7
:100CA000202084F8390084F83A00002070BD00004C
:100CB00000B500680E4987B0884217D10D48016819
:100CC00041F0100101600068694600F010000590D5
:100CD0004FF4C06000900220019001200290032098
:100CE0000390072004900448FFF7E0FA07B000BD26
:100CF0000010014044380240000002407047704735
:100D0000FEE7000070B5174886B00024016841F086
:100D100020010160016801F020010591016841F0A6
:100D200080010160016801F080010591016841F0D6
:100D30000101016000680C4E00F001004FF4C06535
:100D40000590002229463046FFF788FB01200095D8
:100D5000CDE90104694630460394FFF7A7FA06B0CF
:100D600070BD00003038024000140240FEE77047BA
:100D70000907090E002806DA00F00F0000F1E02054
:100D800080F8141D704700F1E02080F800147047CF
:100D90007047704710B5FFF76DFBBDE81040FFF7D7
:100DA000C8BE000030B5244893B00025016841F06A
:100DB00080510160006800F0805011901F48016868
:100DC00041F4804101600068022400F480401190E9
:100DD00001200090000401908001CDE9064008AA9E
:100DE0000420A82182E813000B906846FFF7F2FC6C
:100DF00000B1FEE70CA90F2081E831004FF4A050AC
:100E00000F904FF48050109005210CA8FFF7F4FBD1
:100E100000B1FEE7FFF788FC4FF47A71B0FBF1F008
:100E2000FFF773FE0420FFF763FE00221146501EF9
:100E3000FFF7B0FB13B030BD4038024000700040F7
:100E40001048016841F4700101600F48016841F0E9
:100E5000010101600C4A00210832116002680B4B4D
:100E60001A400260031D0A4A1A60026822F48022B6
:100E7000026005480C30016002495806803908605C
:100E80007047000088ED00E000380240FFFFF6FEEA
:100E90001030002410B5806B0021C185C184FFF79C
:100EA0004CFE10BD0168CA6822F49072CA600168E5
:100EB0004A6922F001024A61202180F83A10704705
:100EC00010B590F83A10222901D0022010BD816897
:100ED000B1F5805F11D00169002901681FD0496810
:100EE00001F07F03816A4A1C82620B70C18D491E2A
:100EF0000904090CC18518D026E00269816A002A1C
:100F00000268526805D0D2B20A80816A491C8162A7
:100F1000ECE7C2F308020A80816A891CF7E74A6895
:100F2000816A4B1C83620A70E0E70168CA6822F498
:100F30009072CA6001684A6922F001024A61202168
:100F400080F83A10FFF7DAFE002010BD2DE9F041DD
:100F500004460068016921F44052E16811430161CF
:100F60002168C86849F20C6290432369A268E56968
:100F70001A4363692B431A430243CA6021684869D4
:100F800020F44072A06910434861E1696425B1F51D
:100F9000004F9748974A21684FF032083FD091425E
:100FA00001D081427CD1FFF7D5FB00EBC00101EB02
:100FB000001061688900B0FBF1F6FFF7CBFB00EB96
:100FC000C00101EB001061688900B0FBF1F0B0FBDB
:100FD000F5F06FF01801484306EB800108EB0110B3
:100FE000B0FBF5F000F0F006FFF7B4FB00EBC0013A
:100FF00001EB001061688900B0FBF1F0B0FBF5F087
:1010000006EB0016FFF7A6FB00EBC00101EB00109A
:1010100061688900B0FBF1F7FFF79CFBD2E09142D9
:1010200001D081423DD1FFF795FB00EBC00101EB00
:10103000001061684900B0FBF1F0B0FBF5F006016B
:10104000FFF788FB00EBC00101EB0010616849006D
:10105000B0FBF1F7FFF77EFB00EBC00101EB0010E6
:1010600061684900B0FBF1F0B0FBF5F06FF01801DA
:10107000484307EB800108EBC100B0FBF5F000F03E
:10108000F80006EB4006FFF765FB00EBC00101EB43
:10109000001061684900B0FBF1F7FFF75BFB3CE033
:1010A00055E0FFF747FB00EBC00101EB0010616862
:1010B0004900B0FBF1F0B0FBF5F00601FFF73AFB99
:1010C00000EBC00101EB001061684900B0FBF1F7D3
:1010D000FFF730FB00EBC00101EB00106168490035
:1010E000B0FBF1F0B0FBF5F06FF01801484307EBEF
:1010F000800108EBC100B0FBF5F000F0F80006EB52
:101100004006FFF717FB00EBC00101EB0010616820
:101110004900B0FBF1F7FFF70DFB00EBC00101EB5D
:10112000001061684900B0FBF1F0B0FBF5F06FF022
:101130001801484307EB800108EBC100B0FBF5F054
:1011400000F00700216830448860BDE8F081FFF7B7
:10115000F1FA00EBC00101EB001061688900B0FBFF
:10116000F1F6FFF7E7FA00EBC00101EB0010616850
:101170008900B0FBF1F0B0FBF5F06FF018014843C7
:1011800006EB800108EB0110B0FBF5F000F0F00673
:10119000FFF7D0FA00EBC00101EB00106168890095
:1011A000B0FBF1F0B0FBF5F006EB0016FFF7C2FA6A
:1011B00000EBC00101EB001061688900B0FBF1F7A2
:1011C000FFF7B8FA00EBC00101EB0010616889007D
:1011D000B0FBF1F0B0FBF5F06FF01801484307EBFE
:1011E000800108EB0110B0FBF5F000F00F00A9E75B
:1011F000001401400010014090F83910212901D05D
:10120000022070478168B1F5805F016A0BD04A1CEB
:101210000262026809785160C18C491E0904090CF8
:10122000C1840ED017E009880268C1F3080151603B
:1012300001690029016A02D0491C0162ECE7891C9E
:10124000FBE70168CA6822F08002CA600068C168D2
:1012500041F04001C1600020704700000148FFF7E5
:101260006DBC000010000020FEE702E008C8121F5D
:1012700008C1002AFAD170477047002001E001C17F
:10128000121F002AFBD17047FFF7FCF8FFF78AFD19
:10129000FFF738FD0E480D490C2201604FF4E13193
:1012A000416000218160C160C0E904128161C161B7
:1012B000FFF7CCFC00B1FEE7002201212520FFF75B
:1012C00069F92520FFF75AF9FEE7000000100140F8
:1012D00010000020000000000000000001020304D4
:1012E0000607080900000000010203040C130008AF
:1012F00000000020100000006A1200081C13000803
:1013000010000020400400007A12000801000000D4
:0C13100010000000000000000024F400A9
:040000050800018965
:00000001FF
